:100000000C9427030C946E030C946E030C946E03F3
:100010000C946E030C946E030C946E030C946E039C
:100020000C946E030C946E030C942A180C94441DCB
:100030000C943D330C946E030C946E030C946E037D
:100040000C946E030C946E030C946E030C946E036C
:100050000C946E030C9401190C946E030C946E03B3
:100060000C946E030C946E030C946E030C946E034C
:100070000C946E030C946E030C946E030C946E033C
:100080000C946E030C946E030C946E030C946E032C
:100090000C946E030C946E030C946E030C946E031C
:1000A0000C946E030C946E030C946E03050109020C
:1000B000A10185020901A1000509190129081500FE
:1000C0002501950875018102050109300931158165
:1000D000257F95027508810609381581257F9501D0
:1000E00075088106050C0A38021581257F95017572
:1000F000088106C0C005010980A101850319012AF4
:10010000B700150126B700950175108100C0050CD8
:100110000901A101850419012AA002150126A002E6
:10012000950175108100C005010906A1018505052D
:100130000719E029E71500250195087501810205D9
:1001400007190029EF1500250195F07501810205B9
:10015000081901290595057501910295017503910D
:1001600001C00660FF0961A1010962150026FF00B8
:100170009520750881020963150026FF00952075FA
:10018000089102C005010906A101050719E029E748
:1001900015002501950875018102950175088101F9
:1001A0000507190029FF150026FF0095067508812F
:1001B000000508190129059505750191029501753C
:1001C000039101C0000101010101010101010202CD
:1001D00002020202020202030303030303030304F5
:1001E00004040404040405050505050606060606C0
:1001F000070707070708080808090909090A0A0A7A
:100200000B0B0B0C0C0C0D0D0D0E0E0E0F0F0F101B
:1002100010111111121213131414151516161717A5
:10022000181819191A1A1B1B1C1D1D1E1E1F202011
:10023000212222232424252626272829292A2B2C5B
:100240002D2D2E2F30313232333435363738393A7E
:100250003B3C3D3E3F404142434445464748494A76
:100260004C4D4E4F50515354555658595A5B5D5E44
:100270005F616264656668696B6C6D6F70727375DF
:1002800077787A7B7D7E8082838587888A8C8E8F43
:1002900091939596989A9C9EA0A2A3A5A7A9ABAD71
:1002A000AFB1B3B5B7BABCBEC0C2C4C6C9CBCDCF5F
:1002B000D1D4D6D8DBDDDFE2E4E7E9EBEEF0F3F50D
:1002C000F8FAFDFFFFAA7F55402223252628292A78
:1002D0002C2D2F3032333536383A3B3D3E404243A9
:1002E0004547494A4C4E5051535557595A5C5E60E8
:1002F00062646668696B6D6F71737577797B7D7FFA
:1003000081838587898A8C8E90929496989A9C9EF8
:100310009FA1A3A5A7A8AAACAEAFB1B3B4B6B8B914
:10032000BBBCBEBFC1C2C3C5C6C7C9CACBCCCDCE7C
:10033000D0D1D2D2D3D4D5D6D7D7D8D9D9DADADB5F
:10034000DBDBDCDCDCDCDCDDDDDDDDDCDCDCDCDCEB
:10035000DBDBDBDADAD9D9D8D7D7D6D5D4D3D2D22A
:10036000D1D0CECDCCCBCAC9C7C6C5C3C2C1BFBE12
:10037000BCBBB9B8B6B4B3B1AFAEACAAA8A7A5A37D
:10038000A19F9E9C9A98969492908E8C8A8987853C
:1003900083817F7D7B79777573716F6D6B6968661B
:1003A0006462605E5C5A5957555351504E4C4A49ED
:1003B00047454342403E3D3B3A3836353332302F95
:1003C0002D2C2A292826252322165C1E001F0020FA
:1003D0000021002200230024002500260027002DF4
:1003E000002E002A002B0014001A00080015001728
:1003F000001C0018000C00120013002F0030003108
:1004000000390004001600070009000A000B000D67
:10041000000E000F003300340000002800E1001D32
:10042000001B0006001900050011001000360037FF
:1004300000380000000000E500E000E300E20000FA
:100440000000002C00000000000000E6000151E761
:10045000000000E40001003A003B003C003D003E8B
:10046000003F0040004100420043004400450000BE
:100470005C0100C25CC35CC55CC65CC75CC85CC98F
:100480005CCA5C0100010001000100010001006B79
:10049000006C006D006E006F007000710072000152
:1004A0000001000100000001000100010001000145
:1004B0000001000100145C010001000100010000C6
:1004C0000000000100010001000100000000000127
:1004D0000000000000000001000100010000000118
:1004E000000000000000000000000000000000000C
:1004F00000000000000000000000000000000000FC
:1005000000000000007E0F00D4FFFFFFC7000000C6
:100510007800000000000000002A2B2800000000E6
:1005200000000000000000000000000029000000A2
:10053000002C1E3420212224342627252E362D3748
:1005400038271E1F202122232425263333362E3719
:10055000381F0405060708090A0B0C0D0E0F1011B1
:1005600012131415161718191A1B1C1D2F313023BE
:100570002D350405060708090A0B0C0D0E0F101186
:1005800012131415161718191A1B1C1D2F3130358C
:100590004C1E0F0500047F3F1F6432146432147830
:1005A0003C1E1E140A0509025B00030100A0FA09A3
:1005B0000400000103010100092111010001224092
:1005C000000705810308000A090401000203000076
:1005D00000092111010001222200070582032000E9
:1005E00001070503032000010904020001030000C4
:1005F0000009211101000122B60007058403200033
:100600000A1201100100000008504B2211020001E3
:100610000200011A0342004D00360030005600323D
:10062000005F0070006F006B006500720000001832
:10063000034B00500020005200450050005500427E
:10064000004C004900430000000403090400112489
:100650001FBECFEFDAE0DEBFCDBF04B603FE27C07A
:1006600080910C0790910D07A0910E07B0910F0794
:100670008730904BA740B04BD1F410920C071092EA
:100680000D0710920E0710920F0714BE84B7877FD4
:1006900084BF0FB6F894A89580916000886180931C
:1006A0006000109260000FBEE0E0F8E3099527E0DB
:1006B000AEE9B3E001C01D92AC30B207E1F713E040
:1006C000A0E0B1E0E4E1FCE602C005900D92AE3995
:1006D000B107D9F70E94A9290C94A7350C94000002
:1006E000E8EDF0E080818E7F80831092E20010922E
:1006F000DA001092E100A0EEB0E08C9181608C9362
:1007000080818F77808319BCA7EDB0E08C918E7FBC
:100710008C9380818F7E80831092DB0408952091DA
:10072000E4003091E50095E6A9012091EC00822FCC
:10073000817020FF06C08091E80080FF06C080E045
:1007400008952091E80022FD1AC0809100058823B9
:1007500089F0853089F08091EB0085FD0FC02091F4
:10076000E4003091E50042175307F9F29150E1F6A9
:1007700084E0089582E0089583E0089581E008957B
:10078000EF92FF920F931F93CF937C018B010E94F6
:100790008F03C82F811117C08091E80085FD0BC021
:1007A0008091E8008E778093E8000E948F03882371
:1007B00099F3C82F08C0F70181917F018093F10060
:1007C0000150110949F78C2FCF911F910F91FF9084
:1007D000EF9008958091020587FF13C08091E80093
:1007E00082FF06C08091E8008B778093E80004C008
:1007F000809100058111F2CF089580910005882332
:10080000D9F38091E80080FFF8CF8091E8008E77DF
:10081000ECCF982F9093E900242F762F50E0891782
:1008200031F07091EC002091ED005091F00021FD2D
:1008300007C09F5F973071F78093E90081E00895CA
:100840003091EB003E7F3093EB003091ED003D7F27
:100850003093ED003091EB0031603093EB007093FA
:10086000EC002093ED005093F0002091EE0027FD66
:10087000E0CF80E00895CF92DF92EF92FF920F9346
:100880001F93CF93DF93C8EDD0E088818F7E88835C
:10089000E7EDF0E080818160808384E082BF81E0C9
:1008A0008093DB0488818E7F888302EE10E0F8015C
:1008B00010821092DA0081EEC82ED12CF60110823F
:1008C00088818F77888388818068888388818F7DFD
:1008D000888319BC10920005109201051092FF0444
:1008E0001092FE0490EEE92EF12CF70180818B7FAF
:1008F000808388818160888342E060E080E00E949C
:100900000904F60180818E7F8083F80180818160F7
:100910008083808188608083F70180818E7F8083DF
:10092000888180618883DF91CF911F910F91FF9023
:10093000EF90DF90CF900895FC0180910805909191
:10094000090586179707A0F06115710529F49091A4
:10095000E8009E779093E80090E06115710551F4EE
:10096000911108C08091E80082FF34C080E00895B2
:10097000BC01F2CF809100058823C1F18530C1F11F
:100980008091E80083FD30C08091E80082FDEACFCD
:100990008091E80080FFE1CF8091F3002091F20088
:1009A000382F6115710519F02830310558F091E0A4
:1009B0002830310509F090E02091E8002E7720934F
:1009C000E800CBCF81918093F100615071092F5FD6
:1009D0003F4FE7CF80910005882341F0853041F0FB
:1009E0008091E80083FFBECF81E0089582E0089502
:1009F00083E00895EF92FF920F939701201B310936
:100A00002F3F310519F010F02FEF30E02095382FEF
:100A1000320F08F43FEF832F0F91FF90EF9008956E
:100A2000EF92FF920F939701201B31092F3F310561
:100A300019F010F02FEF30E0322F3095482F430F90
:100A400008F44FEF842F620F0F91FF90EF900895FD
:100A5000EF92FF920F93972F093438F4B701601B80
:100A600071096F3F710519F010F06FEF70E0485F8A
:100A70005F4F4131510540F0A901485F5F4F41315F
:100A8000510510F06FEF70E06095482F460F08F4A5
:100A90004FEF842F37FF02C02D5F3F4F35952795CD
:100AA0003595279560910707620F792F0F91FF9079
:100AB000EF900895EF92FF920F931F930E0D1F2D4D
:100AC000111DF90137FF03C0F195E195F10924E00B
:100AD000EE0FFF1F2A95E1F7EF3FF10519F014F033
:100AE000EFEFF0E09A0157FF03C0319521953109EE
:100AF00094E0220F331F9A95E1F72E173F070CF46D
:100B0000F901E00FF11FEF3FF10519F010F0EFEFE1
:100B1000F0E0E095282F3E2F230F08F42FEF822FCF
:100B20001F910F91FF90EF900895EF92FF920F9316
:100B3000970195E0099F200D311D11242F3F3105AC
:100B400019F010F02FEF30E02095382F320F08F415
:100B50003FEF832F0F91FF90EF90089522E8241B21
:100B600008F420E0620F08954095282F429F412D00
:100B70001124842F0895E42FF0E0EE0FFF1FEA51B7
:100B8000FD4F9081921B97FD9195292F38E1239F6E
:100B9000212D1124620F08950F931F9310E0F80187
:100BA000EE0FFF1FEA51FD4F9081905797FD9195F1
:100BB000000F111FF801E951FD4F00810052110B88
:100BC0002003F001219FF00D112408E310E0091B20
:100BD000110997FD139540039001419F300D112499
:100BE000E20FF31F9F01220F331F2E0F3F1F37FF0E
:100BF00002C021583F4F220F232F221F330B620FB9
:100C00001F910F9108950F931F93522F10E0F80139
:100C1000EE0FFF1FE951FD4FA081A052BB0B9D01BC
:100C20005203F001539FF00D1124000F111FD80142
:100C3000AA51BD4F0C910057110B40039001419FE9
:100C4000300D11242E0F3F1F37FF02C0215C3F4F94
:100C500096E0359527959A95E1F7620F1F910F91D0
:100C600008950F931F93522F10E0F801EE0FFF1F0E
:100C7000E951FD4FA081A052BB0B9D015203F00131
:100C8000539FF00D1124000F111FD801AA51BD4F21
:100C90000C910057110B40039001419F300D11241E
:100CA0002E0F3F1F37FF02C021583F4F220F232F27
:100CB000221F330B620F1F910F910895EF920F9334
:100CC000972F23E0029FB0011124759567956E0D53
:100CD000792F0F91EF900895322F50E0FA01EE0F27
:100CE000FF1FE951FD4F9081905297FD9195440F60
:100CF000551FFA01EA51FD4F2081231B330B290FA9
:100D0000311D97FD3A95620F0895E42FF0E0EE0F44
:100D1000FF1FE951FD4F6081621B0895E42FF0E051
:100D2000EE0FFF1FEA51FD4F6081621B0895622F95
:100D30000895E42FF0E0EE0FFF1FEA51FD4F4081D0
:100D400034EE439F412D1124E82FF0E050E0445E43
:100D50005F4FDA01A21BB1099D01B7FF03C03195B6
:100D60002195310993E0220F331F9A95E1F7AF01E6
:100D7000421B530B9A0157FD20E0582F259F212D30
:100D80001124822F0895089580E008958091DD0454
:100D900008959C014FB7F8948091D7049091D8049E
:100DA000A091D904B091DA044FBF821B930B089530
:100DB00020911F012223C9F020916A0427FF15C04A
:100DC000E62FE695E695E695EE31D8F4E80FF92F93
:100DD000F11D677021E030E001C0220F6A95EAF74B
:100DE00020958281282322830895FC01329608965B
:100DF0002191621303C0DF0111971C92E817F907D4
:100E0000B9F7089520911F012223C1F020916A04AF
:100E100027FF14C0E62FE695E695E695EE31F8F447
:100E2000E80FF92FF11D677021E030E001C0220FBB
:100E30006A95EAF78281822B82830895FC013296BB
:100E40002FEF30E04191641751F02F3F19F4411119
:100E500001C0232F3F5F3630A9F72F3F09F40895D3
:100E6000820F911D27FD9A95FC0162830895809160
:100E70006504811110926504089580916404909135
:100E80006304892B90916204892B8093A003909135
:100E900065049923A1F0892B8093A00380911F0101
:100EA000882341F180916A0487FF24C08EE1E2EA41
:100EB000F3E090E0815000F591110E943707E09136
:100EC000AB04F091AC043097E1F080911F018823CE
:100ED00059F080916A0487FF07C08091A003809336
:100EE000A10385E08093A0030280F381E02D80EAD6
:100EF00093E0099486E0DBCF21912223D9F29F5F12
:100F0000D9CF08952EE0929F800D1124982F9770CD
:100F100086958695869525E0829FF0011124EC5CEC
:100F2000FB4F50E040E080E0219130E0092E02C00C
:100F3000369527950A94E2F721703327042E01C0D5
:100F4000220F0A94EAF7822B4F5F5F4F453051051D
:100F500059F708952EE0929F800D1124982F9770D5
:100F600041E001C0440F9A95EAF7869586958695EB
:100F700095E0899FF0011124EC5CFB4F90E080E04C
:100F800070E05191DF0111979B01082E02C0369548
:100F900027950A94E2F721702195252724232527F8
:100FA0002C9301968530910561F708958091330463
:100FB00090910204981301C008958F5F8770FACF53
:100FC000882341F080959091640489238093640480
:100FD0000C943D070895882339F090916404982B70
:100FE000909364040C943D0708952091F803309188
:100FF000F9032817390771F09093F9038093F803E8
:10100000E091AB04F091AC04309721F00084F185BD
:10101000E02D099408952091F6033091F7032817E5
:10102000390771F09093F7038093F603E091AB04D6
:10103000F091AC04309721F00680F781E02D0994FF
:101040000895E091AB04F091AC04309721F0019049
:10105000F081E02D099480E00895FA01811101C02A
:10106000FB010994CF93DF938D33910520F5880F11
:10107000991F880F991FFC01E75AFE4FA281338107
:1010800080818370C181E82FF0E050EC859FC00122
:101090001124845C9A4FC80FD92FD11D6883A80FE3
:1010A000B92FB11D4C93830F911DDC012C93E45497
:1010B000F94F81E08083DF91CF910895FF920F93E4
:1010C0001F93CF93DF93182F062FF42ED0E0C0E0AC
:1010D0002F2D402F612FCE010E9432082196CD3353
:1010E000D105B1F7DF91CF911F910F91FF90089536
:1010F0000C945E080C943208FC019B01009729F4C3
:1011000080E077FF2BC080E80895AC0197FF04C012
:1011100044275527481B590BB901640F751F37FD2C
:1011200010C0241B350BC901A5E0880F991FAA9593
:10113000E1F70E944A3480E2861BF7FF0FC08195D9
:101140000895CB0165E0880F991F6A95E1F7BA0110
:10115000621B730B0E944A3480E6EECF0895EF9233
:101160000F93CF93DF93D72FC82FC9010E19BA0160
:101170000E947C08602F681B7D2F8C2FDF91CF9100
:101180000F91EF9008950F93CF93DF93D72FC82F30
:10119000C901BA010E947C08682F600F7D2F8C2F37
:1011A000DF91CF910F910895EF920F931F93CF93FB
:1011B000DF93D62FC72F182FC9010E19010FBA01BF
:1011C0000E947C08081B202F219F212D1124822F93
:1011D0006D2F7C2FDF91CF911F910F91EF9008958C
:1011E0000F931F93CF93DF93D62FC72F182FC901CB
:1011F000212F201B022FBA010E947C08982F990FE3
:10120000990F891B800F282F219F212D1124822FB8
:101210006D2F7C2FDF91CF911F910F910895E82FB3
:1012200086FDE0952E2F2F7086FD2F5FE695E695C3
:10123000E695E670F0E0EF5AFE4F9181929F902D77
:10124000212D112492959F702295207F922B208131
:10125000920F87FD919580E8890F08950F931F9352
:10126000CF93DF938B01D82FC42F822F0E940F09B9
:10127000EC2FF0E0EE0FFF1FEA51FD4F90819058E8
:10128000890F87FD8195880F682F2CE0629F612D63
:101290001124600F712F8D2FDF91CF911F910F912E
:1012A0000895AC018230910508F408959FEF413E06
:1012B0008EE1580740F49A0195E0369527959A9566
:1012C000E1F798E0920F61E0E62FE90FFF27FF1F9B
:1012D0009F0135952795822F229FF001239FF00DC6
:1012E000F00D11244E175F0738F49FEF920F9617F9
:1012F00058F78FEF860F08952F3FE9F361E0620FF3
:10130000F6CF0F93CF93DF93D72FC82F47FD41958B
:1013100088E390E0841B910947FD9395889FB00175
:10132000899F700D700D1124229FC001239F900D85
:10133000900D1124860F971F0E945109982F990F25
:10134000890F682F600F7D2F8C2FDF91CF910F9128
:10135000089530E020E0869F212D969F200D311DBD
:101360001124C90108958091C804982F9E7F61F4CB
:10137000817082608093C8048091CB04873918F013
:1013800086E98093CB0408958635B0F38170846537
:10139000F1CFAF92BF92CF92DF92FF920F931F9344
:1013A000CF93DF93362F472FE82FF0E0EC53FE4F1B
:1013B00071110FC0E4918E2F2E2F6E2F722FDF919F
:1013C000CF911F910F91FF90DF90CF90BF90AF9082
:1013D0000895C72FD0E02491F22E022F10E056E09E
:1013E000659FC0011124EFEFF0E0BF010E94363489
:1013F000832F90E0880F991F35E5369FD001379FE6
:10140000B00D11248A1B9B0B982F990F980F6F0119
:10141000CC1ADD0AC09ED001C19EB00DD09EB00D89
:1014200011248B2F499FA0011124452F55276F01AF
:10143000C41AD50AC09EA001C19E500DD09E500D69
:1014400011245F01A91AB108AC9E6001AD9ED00CB9
:10145000BC9ED00C1124CD2CDD24EC19FD09E09F9D
:10146000E001E19FD00DF09FD00D1124ED2F6230EF
:101470007105A1F050F46115710509F49ECF61303A
:10148000710581F0EB2F852F98CF6430710569F0DD
:1014900080F06630710509F490CFF4CFE22F2B2F46
:1014A0008D2F8BCFE22F252F88CFEB2F822F2D2F43
:1014B00084CF2B2F8F2DE52F80CF7F928F929F92FD
:1014C000AF92BF92CF92DF92EF92FF920F931F9352
:1014D000CF93DF935C01C09120018DE0C89FC02DA8
:1014E00011241DE01C0FF12E1E3310F03DE3F32EEE
:1014F00060910A0766958091FB069091FC060E9418
:10150000A909782ED0E0CF1590F081E01D3308F0C6
:1015100080E0DF91CF911F910F91FF90EF90DF90CE
:10152000CF90BF90AF909F908F907F900895FE01D5
:10153000E05AFC4F8081909121018923C9F1CE01AD
:10154000880F991F80569D4FFC01EA5BFF4F208159
:10155000422F4057550B6A01895B9F4FFC018081E8
:10156000282F2052330B4901449F9001459F300D95
:10157000300D1124889CC001899C900D900D112480
:10158000820F931F0E945109082F609107077091E5
:10159000080780910907E72C9401A601F501099538
:1015A0000E94C909462F282F672FCE010E947A0872
:1015B0002196A9CFCF92DF92EF92FF920F931F93C4
:1015C000CF93DF937C01C09120018DE0C89FC02D97
:1015D00011241DE01C0FD12E1E3310F03DE3D32E3D
:1015E00060910A0766958091FB069091FC060E9427
:1015F000A909C82ED0E0CD1568F081E01D3308F0B0
:1016000080E0DF91CF911F910F91FF90EF90DF90DD
:10161000CF900895FE01E05AFC4F80819091210106
:10162000892311F1CE01880F991F80569D4FFC012F
:10163000E95BFF4F20812052330B8A5B9F4FFC01F7
:1016400040814057550B60910707709108078091C2
:1016500009070C2DF70109950E94C909462F282F6B
:10166000672FCE010E947A082196C5CFDF92EF92B4
:10167000FF920F931F93CF93DF937C01C0912001C2
:101680008DE0C89FC02D11241DE01C0F012F1E33BB
:1016900008F00DE360910A076695669521E0620FF8
:1016A00008F46FEF8091FB069091FC060E94A90957
:1016B000D82ED0E0C01760F081E01D3308F080E044
:1016C000DF91CF911F910F91FF90EF90DF900895E0
:1016D000FE01E05AFC4F808190912101892391F015
:1016E0006091070770910807809109072D2D4C2FF5
:1016F000F70109950E94C909462F282F672FCE01AF
:101700000E947A082196D6CF9F92AF92BF92CF9235
:10171000DF92EF92FF920F931F93CF93DF936C01B1
:10172000C09120018DE0C89FC02D11241DE01C0F29
:10173000B12E1E3310F03DE3B32E60910A0766957B
:1017400066958091FB069091FC060E94A909F82EEF
:1017500080E48F0D0E940F0990E8A92EA80E8F2D0E
:101760000E940F0920E8922E980ED0E0CB1580F051
:1017700081E01D3308F080E0DF91CF911F910F9140
:10178000FF90EF90DF90CF90BF90AF909F90089523
:10179000FE01E05AFC4F8081909121018923A1F044
:1017A000609107077091080780910907EF2C0C2FB3
:1017B000292D4A2DF60109950E94C909462F282F87
:1017C000672FCE010E947A082196D0CFCF92DF9268
:1017D000EF92FF920F931F93CF93DF938C01C091F1
:1017E00020018DE0C89FC02D11242DE0D22EDC0EEB
:1017F000CD2C2DE32D1510F49DE3C92E20910A0761
:1018000031E0230F08F42FEF30E050E040E06FEFBD
:101810007FEF80E090E00E9444357901D0E02C2FEA
:10182000CC1570F081E0FCE3FD1508F480E0DF9159
:10183000CF911F910F91FF90EF90DF90CF9008957F
:10184000FE01E05AFC4F808190912101892311F122
:101850004091D2064150042E000C550B47FF1CC08E
:10186000C70160910A0721E0620F08F46FEF0E9440
:10187000A909AC01609107077091080780910907D9
:10188000F80109950E94C909462F282F672FCE011C
:101890000E947A082196C3CFFA01EE52F94F81894E
:1018A00082130AC0FA01EE0FFF1FEE52F94F818D2D
:1018B000928D8E159F05A8F241505109CFCF2F92DE
:1018C0003F925F926F927F928F929F92AF92BF9260
:1018D000CF92DF92EF92FF920F931F93CF93DF93FC
:1018E000CDB7DEB72A970FB6F894DEBF0FBECDBFD7
:1018F0008B837E836D83209120018DE0289F802D36
:1019000011248F83835F89838A838E3310F03DE3B4
:101910003A838091D2068C83FF81EF2FF0E0FA8723
:10192000E987CF01880F991F9C012A513D4F69011A
:101930003B81832F90E0FC013196F887EF838A8109
:1019400099859817E8F081E0E981ED3308F080E0AF
:101950002A960FB6F894DEBF0FBECDBFDF91CF91B0
:101960001F910F91FF90EF90DF90CF90BF90AF90BD
:101970009F908F907F906F905F903F902F900895F1
:10198000E985FA85E05AFC4F8081909121018923F5
:10199000F1F020900707309008072F8138852E52EC
:1019A000394F39015B8010E0FC815F16D0F0209147
:1019B0000907129F112D1124B101812F0E94C9091D
:1019C000462F282F672F89859A850E947A082985B6
:1019D0003A852F5F3F4F3A87298732E0C30ED11CEB
:1019E000AECFF30181913F01F601A080A81ABB0898
:1019F0008180F3018781881A9908AA9C9001AB9C89
:101A0000300D300D1124889CC001899C900D900DE3
:101A10001124820F931F0E945109082F60910A0719
:101A200021E0620F08F46FEFF301EE0FFF1FE25D9C
:101A3000F640858996890E94A9097C019401A50137
:101A4000B101812FED81FE8109951B015394182F5F
:101A5000ABCFCF93DF93762FE901473908F046E902
:101A6000682F842F0E94C909798368838A83DF9154
:101A7000CF9108954091B604803F59F48091B70406
:101A800087FF0DC01092B70441110BC01092B10432
:101A900008C0813F81F48091B70418169CF3442359
:101AA00081F08091B8049091B904892B09F05AC053
:101AB0001092AE040895823F49F447FFF0CF109290
:101AC000B6048091B7048111ECCFE0CF833F19F4C5
:101AD0001416ACF3E4CF9091B804893F29F4191699
:101AE000F4F61092B804DBCF8A3F19F497FFD7CFF2
:101AF000F8CF9091B9048B3F29F497FFD0CF109283
:101B0000B904CDCF8C3F19F41916CCF3C8CF9CE0A3
:101B1000980F953090F4845F990B21E030E0B90183
:101B200002C0660F771F8A95E2F7CB0180959091EE
:101B3000B50489238093B504B2CF8D3F31F48091F1
:101B4000FB038E7F8093FB03AACF8E3F21F480910D
:101B5000FB038D7FF7CF8F3F09F0A1CF8091FB036F
:101B60008B7FF0CF08958091FB0380FD16C081FD2F
:101B700016C082FD16C08091AE048823A1F0883281
:101B800080F428E0829FC001112468E270E00E9486
:101B90004A34862F672B39F0089582E0089584E057
:101BA000089588E0089581E008958091FB0380FD09
:101BB00014C081FD14C082FD16C08091B104882339
:101BC00081F0843180F422E3829FC001112464E11A
:101BD00070E00E944A34862F08958CE0089589E1D0
:101BE000089585E0089582E30895803F31F40E94CE
:101BF000D50D81958093B7040895813F19F40E9413
:101C0000D50DF8CF823F31F40E94D50D8195809398
:101C1000B6040895833F19F40E94D50DF8CF893F8B
:101C200029F40E94B30D8093B80408958A3F21F4EB
:101C30000E94B30D8195F7CF8B3F31F40E94B30D15
:101C400081958093B90408958C3F19F40E94B30DD7
:101C5000F8CF9CE0980F953070F4845F990B21E0E9
:101C600030E001C0220F8A95EAF78091B504822BFB
:101C70008093B50408958D3F31F48091FB0381601A
:101C80008093FB0308958E3F21F48091FB038260D3
:101C9000F7CF8F3FB9F78091FB038460F1CFF894C1
:101CA000E82FE295EF70F0E031A1282F2F7081E04E
:101CB00090E001C0880F2A95EAF7982F909593231A
:101CC00091A392A1892B82A37894089590916A049C
:101CD00092FF06C0282F28712830F9F4877F84608E
:101CE00093FF06C0282F28712831F1F4877E846184
:101CF00020916B0420FF06C0382F38713830D9F49A
:101D0000877F816021FF06C0282F28712831D1F4F8
:101D1000877E816194FD877E0895282F2471243069
:101D2000F9F68B7F8860DCCF282F2471243101F7EE
:101D30008B7E8861DDCF382F3171313019F78E7F7E
:101D40008860E0CF282F2171213121F78E7E8861B4
:101D5000E1CF8093BE066093BF0624E630E042E008
:101D600050E06EEB76E080EA0E94F53321E0892BAB
:101D700009F020E0822F0895FF920F931F93CF93D5
:101D8000DF93C82F082F10E0065C1A4FF8018081FE
:101D90008823B9F065EC8EEF0E94A90E60E08DEF0C
:101DA0000E94A90EF8E1CF9FE0011124C65FDA4F2F
:101DB000F12C69918F2D0E94A90EF39488E1F812FD
:101DC000F8CFF8011082DF91CF911F910F91FF9012
:101DD0000895CF92DF92EF92FF920F931F93CF93CC
:101DE000DF93C82FC82ED12CC6018454994F7C0193
:101DF000FC018081882369F165EC8EEF0E94A90EB9
:101E000061E08DEF0E94A90EF0ECCF9FE00111245C
:101E1000C45CDA4F10E000E00093BE06DE01A00FC4
:101E2000B11FEFEBF6E08D91819386E0EF3CF80770
:101E3000D1F724E630E041E150E06EEB76E080EA55
:101E40000E94F533892B81F4005F1F4F003C110580
:101E500019F7F7011082DF91CF911F910F91FF9039
:101E6000EF90DF90CF900895F601E65CFA4F81E0A5
:101E70008083EFCF80E00E94E90E81E00C94E90EB0
:101E8000CF9384E090E00E94FC34C82F82E290E07F
:101E90000E94FC34982F8C2FCF9108950F931F939D
:101EA000CF93DF93C42FD0E0CC0FDD1F2CE1629FD6
:101EB000C00DD11D11243CE8839FC00DD11D1124FC
:101EC000CE0187960E94FC34082F10E0102F0027C7
:101ED000CE0188960E94FC349801282BC901DF911D
:101EE000CF911F910F910895462F843038F47530AB
:101EF00028F46E3018F4672F0C944E0F90E080E0B9
:101F00000895CF93DF930E94740FEC0182389105FE
:101F1000A9F1D8F58133910509F496C048F58932C5
:101F2000910509F48AC08A9709F495C0C11521E585
:101F3000D20708F0BCC0C11530E5D30708F014C1C2
:101F4000C83ED10508F09CC0C03ED10560F5C83A36
:101F5000D10508F087C0C53AD10508F0FDC0C130F1
:101F6000D10509F12097F9F0C430D105E0F440C063
:101F70008533910509F45AC0C997C1F680916A0466
:101F8000837089F0C0EED0E00EC0833E910599F1D8
:101F900070F4803E910501F1823E910539F6809101
:101FA0006A0482FD21C0CE01DF91CF910895863E63
:101FB000910561F1873E910571F1843E910509F02B
:101FC000B5CF80916B0481FFEECF80916A04C7EE9C
:101FD000D0E084FD0DC0E7CF80916A0480FD12C17E
:101FE00090916B0490FFDFCFC3EED0E084FFDBCF96
:101FF000D0E0C0E0D8CF80916A0482FD06C1909104
:102000006B0490FDBFCF84FFCECFF2CF80916A04E6
:1020100083FDDDCFC8CF80916A0483FDF9C0909124
:102020006B0491FFF0CFC4EED0E0BDCF80916A0485
:1020300085FFB9CFC9E2D0E0B6CF80916A0485FFB1
:10204000B2CFC5E3D0E0AFCF80916A0486FFABCFBB
:10205000CAE2D0E0A8CF80916A0486FFA4CFC1E392
:10206000D0E0A1CFCF3BD10518F6C85AD0E0CC0FB5
:10207000DD1FC05BDD4F0990D881C02DD46493CFA4
:10208000C11540E2D40758F4C11581E0D80708F023
:102090008ACFC03FD10508F4ABCFD06584CFC1153E
:1020A00090E4D90708F4A4CFDF70D06A7CCFC115C3
:1020B00025E5D20700F5C11534E5D30708F08AC03D
:1020C000C11543E5D40708F071C0C11582E5D807F2
:1020D00008F467C0CE018370992721E030E002C088
:1020E000220F331F8A95E2F7C695C69580E2C89FF6
:1020F000E001112452C0C11599E5D907A8F4C11512
:1021000028E5D20708F06BC0C11536E5D30708F003
:102110006FCF8C2F0E94660EC82FD0E0DC2FCC270B
:10212000CC27DF71D0623FCFC1154AE5D40708F450
:102130005BC0CE0190568115904208F059CF8D2F8B
:102140008F710E94660E90E0982F882788279F71D4
:102150009C012C2BE901E6CFC55AD0E0C35BDD4FD3
:10216000C881D0E0D0641FCFCE01E4E0969587957A
:10217000EA95E1F783702C2F26952695237040E28F
:10218000249F90011124382B8C2F8370C1E0D0E064
:1021900002C0CC0FDD1F8A95E2F7C22BD32BDC687F
:1021A00002CFDC2FCC27C16FD06AFDCECE01837069
:1021B000992721E030E002C0220F331F8A95E2F711
:1021C000C695C69590E2C99FE0011124C22BD32B7E
:1021D000DA68E9CEDC2FCC27C46FD06AE4CEDC2FDE
:1021E000CC27C06FD06ADFCE8C2F8F700E94660E16
:1021F00034E0D695C7953A95E1F7CF709C2FEC0166
:10220000D069D1CEC9E3D0E0CECEC2EED0E0CBCE05
:10221000C6EED0E0C8CEBF92CF92DF92EF92FF928F
:102220000F931F93CF93DF938C01C0900207D09040
:102230000307E0900407F0900507809166049091F1
:102240006704A0916804B0916904C82AD92AEA2ACF
:10225000FB2ACFE1D0E0BC2ED701C6010C2E04C072
:10226000B695A795979587950A94D2F780FD0EC0ED
:10227000219788F7B12C8B2DDF91CF911F910F9172
:10228000FF90EF90DF90CF90BF900895B8018C2F12
:102290000E94810F019761F3EECFCF93DF93EC01A2
:1022A0000E940B11BE01DF91CF910C94810F0E940F
:1022B0004D11292F2F7092959F7092509E3078F477
:1022C000E92FF0E0E755FA4C0C945E34803F19F0AA
:1022D00020F4883E20F481E00895843FE1F380E01B
:1022E0000895883EC0F3813FD1F7F5CF822F8695C0
:1022F0008695869508956F927F928F929F92AF9266
:10230000BF92CF92DF92EF92FF920F931F93CF93E2
:10231000DF9389ECC82E83E0D82E9FECE92EF12CB8
:10232000E701CC58D10936011BC0F5018590949086
:10233000692DC8010E942035682DC80101960E94B0
:10234000203582E0A80EB11C0E5F1F4FC017D107C9
:1023500061F78CE1680E711C6C96CE15DF0529F0D3
:102360008E010C5111095301E0CF7E018CE8E80E7B
:10237000F11C8CE8C80ED11C8FEFE81682E0F8063D
:1023800079F6DF91CF911F910F91FF90EF90DF9041
:10239000CF90BF90AF909F908F907F906F90089557
:1023A000CF93C0916B04C2FB992790F9981781F0E5
:1023B00080FBC2F9C0936B0460916A0484E090E0F2
:1023C0000E9420356C2F82E290E0CF910C94203552
:1023D000CF910895CF93DF93C7E5D2E060E0CE01BF
:1023E0000E9420352196C11584E0D807B9F7DF9106
:1023F000CF910895CF93DF9300D00F92CDB7DEB782
:1024000090910005943011F589837B836A839093C2
:10241000E9008FEF9091E800815095FD06C095EDA1
:102420009A95F1F700008111F5CF8091E80085FFC2
:102430000DC050E040E063E070E0CE0101960E94E4
:10244000C0038091E8008E778093E8000F900F9092
:102450000F90DF91CF910895BC0184E00C94FA11A4
:10246000BC0183E00C94FA119C0184E08093E900A4
:102470009FEF8091E800915085FD06C085ED8A951B
:10248000F1F700009111F5CF8091E80085FF0CC0B5
:1024900050E040E066E070E0C9010E94C003809116
:1024A000E8008E778093E8000895CF93DF93EC01E6
:1024B00080911F018823B1F180916A0487FF32C0A7
:1024C00060E284E08093E9008FEF9091E800815012
:1024D00095FD06C095ED9A95F1F700008111F5CFB5
:1024E0008091E80085FF1BC080911F0170E050E0E3
:1024F00040E0811104C050E040E068E070E0CE01AF
:102500000E94C0038091E8008E778093E80080E20B
:10251000FE01AEEDB4E001900D928A95E1F7DF91F6
:10252000CF91089568E081E0CDCF81E08093E00015
:1025300080E28093D8001092C9008FE19EE4019759
:10254000F1F700C0000087E090EBDC0180930C07FE
:1025500090930D07A0930E07B0930F0788E19CE0BE
:102560000FB6F894A895809360000FBE909360001A
:10257000FFCF8091C80480FD0AC0E6ECF3E0118231
:1025800010821282339653E0E83DF507C1F7809A36
:1025900031B33E7F21B321604FB7F89486EC93E0CE
:1025A000FC015191CF0168E021BB000000C057FF42
:1025B00031BB550F000000C000C000C031BB00C0DF
:1025C0006A9591F7F3E0883D9F0751F74FBF8FE57C
:1025D00094E00197F1F700C000000895EF92FF9298
:1025E0001F93CF93DF93EC0186ECE82E83E0F82E67
:1025F00010E08C8197014091CB046091CA04810F57
:102600000E94290D165D83E0E80EF11C1C3F89F73E
:102610000E94B9129A818C8190FF08C08F5F8C83D1
:10262000DF91CF911F91FF90EF9008958150F7CFE8
:10263000BF92CF92DF92EF92FF920F931F93CF93AF
:10264000DF93FC018281DD24DA9480FD02C0DD2469
:10265000D39406EC13E0D0E0C0E026E0B22EF801FF
:1026600011821082128294E0E92EF12CC12C80910B
:10267000C3038C0D87300CF43DC06B2D0E942834B1
:10268000892F082E000C990B8C179D0791F48091CF
:10269000CB048E9DA0018F9D500D1124559547951B
:1026A0005595479598016091CA048091C9040E948C
:1026B000290DCD0CF1E0EF1AF108C9F621960D5F56
:1026C0001F4FC630D10559F60E94B9128091C3033D
:1026D00091E0D91215C0811111C085E08093C30328
:1026E000DF91CF911F910F91FF90EF90DF90CF90EE
:1026F000BF90089587FFC5CF8A5FC3CF8150EECFCB
:1027000090E00196BE010E944A34E8CF0F931F93D8
:10271000CF93DF93C6ECD3E0FE01118210821282C8
:10272000339683E0E83DF807C1F710E000E08091C0
:10273000C403082E000C990B081719078CF180911F
:102740001001082E000C990B801791074CF19E0187
:102750004091CB046091CA048091C9040E94290D64
:102760000F5F1F4F23960630110509F70E94B9121B
:1027700080910F019091C403980F9093C40320910E
:102780001001280F20931001121614F495301CF03C
:10279000819580930F01DF91CF911F910F91089543
:1027A000198218821A82DCCF8F929F92AF92BF92C9
:1027B000CF92DF92EF92FF920F931F93CF93DF930D
:1027C000EC014C81042F10E09801D8010E9498354B
:1027D0009B01AC010E9463354B015C01E0E2F0E03B
:1027E000E01BF10BA5E5B0E0AC019B010E94633555
:1027F0006B017C019F01DF010E946B349B01AC01E6
:102800000E946E359B01AC01280D391D4A1D5B1DD0
:10281000C701B6010E947635F22E822F90E039E290
:102820003F15D8F143E0249F900111243595279559
:10283000122F109596ECC92E93E0D92E00E085E575
:10284000E82EEF188E2D01FD8F2D9601412F6091FE
:10285000CA040E94290D0F5F53E0C50ED11C06303B
:1028600089F70E94B9129C8181E0992319F0903276
:1028700019F48FEF8093110180911101890F8C83DE
:10288000DF91CF911F910F91FF90EF90DF90CF904C
:10289000BF90AF909F908F90089525E530E0A901FB
:1028A000481B590BCA019A01220F331F280F391FE9
:1028B00037FFBCCF2F5F3F4FB9CFEF92FF920F93FF
:1028C0001F93CF93DF938C01C6ECD3E0F12CE12C66
:1028D000F80194816091CA048091C904F3E0EF1675
:1028E000F104FCF49923F9F09E014091CB040E947D
:1028F000290D2FEFE21AF20A239686E0E816F1047A
:1029000039F70E94B912F801848190E00196817034
:1029100099278483DF91CF911F910F91FF90EF90C2
:102920000895992309F39E0140E0E1CF9091C804F6
:1029300090FF0CC0E6ECF3E0818360834283339622
:1029400093E0E83DF907C1F70C94B91208950F938D
:102950001F93CF93DF9300D00F92CDB7DEB78C01DA
:102960008091C50381110AC09E012F5F3F4F46E948
:102970006FEF0E94290D8A818093C503F80164815D
:10298000613069F08091C50340E0662361F040E06A
:10299000623011F44091C50380E060E004C06091B2
:1029A000C50340E080E00E949614F801848190E025
:1029B000019663E070E00E944A3484830F900F9088
:1029C0000F90DF91CF911F910F910895CF93DF93D7
:1029D00000D00F92CDB7DEB79091C80490FF0AC027
:1029E0009E012F5F3F4F0E94290D4B8169818A8193
:1029F0000E9496140F900F900F90DF91CF91089541
:102A0000CF93DF93EC01EC81F0E0E753FD4F44916D
:102A1000E8ECF4E0628181810E94E6148C818F5F92
:102A20008C83DF91CF910895CF93DF93EC01E8EC95
:102A3000F4E0438162818C810E94E6148C818F5F77
:102A40008C83DF91CF9108954F925F926F927F9226
:102A50008F929F92AF92BF92CF92DF92EF92FF92AE
:102A60000F931F93CF93DF93FC016280448081E03A
:102A70008483E9ECF2E07490E8E4F3E0E491C8EDDB
:102A8000D3E036ECE32E33E0F32E46EFC42E43E0E2
:102A9000D42E52E0A52EBB24B39488248A94912C82
:102AA00055245A94E7190E2F10E082E0861530F075
:102AB0008091C90488838091CA048983411021C010
:102AC0001B821A8297014A81698188810E94290D9F
:102AD000259683E0E80EF11CCC16DD0631F7DF9178
:102AE000CF911F910F91FF90EF90DF90CF90BF900B
:102AF000AF909F908F907F906F905F904F900C94CD
:102B0000B9128B818823E9F081508B83859DC001A8
:102B100011246C8170E00E943634FB01FF27E753DB
:102B2000FD4F8491E82FE719E59DC0011124B801FC
:102B30000E9436348091CB04689FB00111247A83BF
:102B4000C1CF0E94C6342091CB04269521582A9DDE
:102B5000A0012B9D500D1124452F55278417950753
:102B60000CF0B0CF82E0861588F40E94C634B40120
:102B70000E944A3488830E94C6342091CA04269554
:102B8000622F70E00E944A34280F29831A828091B4
:102B9000CB04893C20F088EC8C838B8393CF8431E9
:102BA000D8F784E1F9CF6AEE7EEF90E080E00E94F2
:102BB0003E3560E082E090E00E94203560E083E0F6
:102BC00090E00E94203510926604109267041092E3
:102BD00068041092690460E084E090E00E9420356F
:102BE00060E082E290E00E94203560E085E090E0C5
:102BF0000E94203560E086E090E00E9420356FEF73
:102C000087E090E00E94203540E050E0BA0188E083
:102C100090E00E94323560E08DE090E00E94203527
:102C200040E050E0BA0188E190E00E94323560E077
:102C300087E190E00E94203540E050E0BA018CE14D
:102C400090E00E94323570E060E080E290E00E9407
:102C50003E3540E050E0BA0188E190E00E94323514
:102C600040E050E0BA018FE090E00E94323540E051
:102C700050E0BA0183E190E00C943235CF92DF92BC
:102C8000EF92FF926B017C010E94B309B701A6018C
:102C900088E090E0FF90EF90DF90CF900C94323579
:102CA0005F926F927F928F929F92AF92BF92CF92DC
:102CB000DF92EF92FF920F931F93CF93DF9300D099
:102CC0000F92CDB7DEB7182F762E042F622E90917B
:102CD000C80490FF29C0E92FE695AE2FB0E0AA5DA9
:102CE000BE4F8C918093C6049E7F923081F59E01E9
:102CF0002F5F3F4F812F0E94290D4B8169818A816F
:102D00000E9496141093C9047092CA040093CB04D5
:102D1000662051F06091C8047091C9048091CA0482
:102D20009091CB040E943E160F900F900F90DF9170
:102D3000CF911F910F91FF90EF90DF90CF90BF90B8
:102D4000AF909F908F907F906F905F9008958230AA
:102D500019F40091CB04D6CF863019F41091C90430
:102D6000D1CF8930D9F3893169F6E9518E2F81703D
:102D7000582EE695F0E0EC53FD4FA590B490BB249F
:102D800086ECE82E83E0F82ED12CC12C96E0892E1B
:102D9000912CC601B4010E943634812F511013C00A
:102DA000860F9701402F672D0E94290DCA0CDB1C4E
:102DB00083E0E80EF11C88EDE81683E0F80649F799
:102DC0000E94B9129FCF861BECCFE8ECF4E0438160
:102DD00028E0421B08F440E021E0628181810C94EC
:102DE0005016E8ECF4E0438128E0420F08F44FEF7E
:102DF00021E0628181810C945016E8ECF4E062815C
:102E000028E0621B08F460E021E0438181810C949A
:102E10005016E8ECF4E0628128E0620F08F46FEFEE
:102E200021E0438181810C945016E8ECF4E081812B
:102E300021E04381628188500C945016E8ECF4E064
:102E4000818121E043816281885F0C9450168091DA
:102E5000CC04882319F081508093CC046091C8047D
:102E60007091C9048091CA049091CB040C943E16D1
:102E70008091CC04833018F48F5F8093CC046091F0
:102E8000C8047091C9048091CA049091CB040C9439
:102E90003E16E8ECF4E08DE0808311828FEF8283B0
:102EA00086E98383148260817181828193810C948D
:102EB0003E16CF92DF92FF920F931F93CF93DF9333
:102EC0000E94643365EC8EEF0E94A90E60E08DEFE6
:102ED0000E94A90EC0E060E08C2F0E94A90ECF5F77
:102EE000C831C9F765EC8EEF0E94A90E61E08DEF45
:102EF0000E94A90EC0E060E08C2F0E94A90ECF5F57
:102F0000C03CC9F765EC8EEF0E94A90E63E08DEF1F
:102F10000E94A90E6FEF81E00E94A90E61E080E09F
:102F20000E94A90E8FE39CE90197F1F700C0000011
:102F3000E9E5F1E050E040E098E1F92EC1E0D0E0B1
:102F400001E0118172816381DA01AA0FBB1FAA0F10
:102F5000BB1FA75ABE4F8C91837090E0A12FA695FE
:102F6000A695A695F89E9001F99E300D1124265F36
:102F70003A4FA20FB32FB11D17706E0101C0CC0CD8
:102F80001A95EAF71C911C291C93A72FA695A695C4
:102F9000A695A20FB32FB11D77706E0101C0CC0CA6
:102FA0007A95EAF77C917C297C93A62FA695A69525
:102FB000A695A20FB32FB11D67709E0102C0220F0C
:102FC000331F6A95E2F7B9012C91262B2C93865C6E
:102FD0009A4FDC010C934F5F5F4F34964D33510590
:102FE00009F0AFCF80E00E94BC0E81E0DF91CF916D
:102FF0001F910F91FF90DF90CF900C94BC0E46E094
:1030000050E06CE170E086E097E00C941035909110
:103010000607937059F08093070760930807453BB4
:1030200008F044EB409309070C94FF170895E6E07D
:10303000F7E081E280838091230190912401A091A7
:10304000250181839283A3838FE784838FEF858318
:103050000C94FF171F920F920FB60F9211242F930B
:103060003F934F935F936F937F938F939F93AF9310
:10307000BF93EF93FF938091E10082FF09C080919D
:10308000E20082FF05C08091E1008B7F8093E10028
:103090008091DA0080FF24C08091D80080FF20C09A
:1030A0008091DA008E7F8093DA008091D90080FFD2
:1030B0009BC080E189BD82E189BD09B400FEFDCFDE
:1030C00081E0809300058091DB04811109C00E949A
:1030D00070030E943B048091E20084608093E200D0
:1030E0008091E10080FF17C08091E20080FF13C053
:1030F0008091E2008E7F8093E2008091E200806107
:103100008093E2008091D80080628093D80019BC3F
:1031100085E0809300058091E10084FF29C08091C3
:10312000E20084FF25C080E189BD82E189BD89B5C7
:10313000982F917080FFFBCF8091D8008F7D809376
:10314000D8008091E1008F7E8093E1008091E200C1
:103150008F7E8093E2008091E20081608093E200A4
:1031600080910105882309F445C084E0809300051F
:103170008091E10083FF27C08091E20083FF23C09C
:103180008091E100877F8093E10082E080930005D9
:10319000109201058091E1008E7F8093E100809183
:1031A000E2008E7F8093E2008091E2008061809354
:1031B000E20042E060E080E00E9409048091F000BB
:1031C00088608093F000FF91EF91BF91AF919F9144
:1031D0008F917F916F915F914F913F912F910F90C0
:1031E0000FBE0F901F90189519BC109200051092F9
:1031F000DB0476CF8091E30087FD93E09093000598
:10320000B7CF78941F921FB61F9211248F939F936C
:10321000AF93BF938091D7049091D804A091D90423
:10322000B091DA040196A11DB11D8093D70490934B
:10323000D804A093D904B093DA04BF91AF919F91C1
:103240008F911F901FBE1F9018952FB7F8948091F3
:10325000D7049091D804A091D904B091DA042FBF7B
:1032600008959091C80490FF3DC09170811129C0CC
:1032700092609093C804662351F06091C8047091E5
:10328000C9048091CA049091CB040E943E166091BB
:10329000C804669570E04BE050E084E091E00E9445
:1032A000D634892BA9F01092C70481E080937B0467
:1032B00020E04091CB046091CA048091C9040C9431
:1032C00050168B3210F09465D4CF880F982BD1CF45
:1032D00081E08093C7040E9425199093790480931C
:1032E0007804E3CF08958091C8048695815009F44D
:1032F0008AE261E00C9431198091C80486958F5F51
:103300008B3208F081E061E00C9431199091C8048F
:1033100090FF07C09695981720F0961710F40C941C
:103320007C1961E00C9431190E9425199C0190913F
:10333000B6048091B704982B21F03093B304209306
:10334000B2049091B8048091B904982B21F0309385
:10335000B0042093AF04E091AB04F091AC0430973B
:1033600049F082E08093B4040480F581E02D84EB81
:1033700094E00994089590E080E00E940B0890E0AA
:1033800080E00E94F50710926304109262040E948C
:103390003D0786E0E4EBF4E0DF011D928A95E9F752
:1033A0001092B1041092AE041092FB030C94941985
:1033B00060930207709303078093040790930507B7
:1033C0000C94BB190F931F93609102077091030730
:1033D00080910407909105078B019C0106701127CD
:1033E00022273327063011052105310529F46860AD
:1033F0001F910F910C94D819677FFACF0F931F93E9
:1034000041E050E060E070E004C0440F551F661FCB
:10341000771F8A95D2F7CB01BA0160957095809598
:1034200090950091020710910307209104073091B5
:10343000050760237123822393231F910F910C941E
:10344000D819909161048095892380936104282F75
:10345000277039F4282F082E000C330B921713060F
:1034600021F490916B0492FF07C085958595859511
:103470000E94FE191092610408950F931F9341E07A
:1034800050E060E070E004C0440F551F661F771FD6
:103490008A95D2F78091020790910307A0910407C3
:1034A000B09105078A019B01082B192B2A2B3B2B76
:1034B000C901B8011F910F910C94D819609366044B
:1034C0007093670480936804909369040C94BB190B
:1034D0001092640480911F01E2EAF3E0882359F01E
:1034E00080916A0487FF07C08EE1DF011D928A95F3
:1034F000E9F70C94BB1986E0F8CF1F93CF93DF93C5
:10350000CDB7DEB7AA970FB6F894DEBF0FBECDBF1A
:1035100082E095E02091F100DC012D93CD01B5E032
:103520008A309B07B9F780910305833009F471C095
:10353000B8F4813009F448C0823009F4B2C08091F7
:10354000E80083FF3AC180910205909103059A300B
:1035500008F033C1E92FF0E0E954FA4C0C945E34E2
:103560008A3009F48DC08B3009F470C0893039F786
:1035700080910205813219F7809106059091070527
:10358000009711F00297D9F68091E800877F809329
:10359000E8008091E80082FF37C09091F3008091AD
:1035A000F200029729F48091F1008B7F813021F4A1
:1035B0008091F1008093DD048091E8008B77809307
:1035C000E8000E94EA03BBCF80910205813A09F02E
:1035D000B6CF8091E800877F8093E8008091060550
:1035E00090910705892B61F460E28EED94E070E024
:1035F0000E949C048091E8008B778093E8009FCF25
:1036000060E090E080E0F3CF809100058111C1CFB0
:1036100096CF80910205813A09F091CF80910605FD
:1036200090910705892B09F08ACF8091E800877F68
:103630008093E8008091E80080FFFCCF80911F011B
:103640008093F1008091E8008E77B9CF80910205D8
:10365000813209F074CF8091060590910705892B7E
:1036600009F06DCF8091E800877F8093E8000E9489
:10367000EA038091040580931F010E94681A5FCFBE
:1036800080910205813209F05ACF8091E800877F4E
:103690008093E8000E94EA03809105058093DC0492
:1036A0004ECF80910205813A09F049CF8091E80020
:1036B000877F8093E8008091E80080FFFCCF8091B5
:1036C000DC04BECF803899F0823809F076C0809152
:1036D00006058F70873008F070C08093E9008091F4
:1036E000EB0085FB882780F91092E90006C08091E5
:1036F000FE049091FF04911182609091E800977F01
:103700009093E8008093F1001092F1008091E8001E
:103710008E77B5C1882309F4A2C1823009F04DC06B
:10372000809104058111A6C1809106058F702FEF4D
:10373000280F263008F041C08093E9002091EB006B
:1037400020FF98C1933031F48091EB008062809328
:10375000EB0090C19091EB0090619093EB0021E021
:1037600030E001C0220F8A95EAF72093EA00109218
:10377000EA008091EB008860EACF81111EC01091B1
:1037800004051F778091E3008078812B8093E3000C
:103790008091E800877F8093E8000E94EA0380918F
:1037A000E80080FFFCCF8091E30080688093E30015
:1037B00082E0111183E0809300058091E80083FF8F
:1037C0000AC08091E800877F8093E8008091EB0039
:1037D00080628093EB00AA960FB6F894DEBF0FBE0E
:1037E000CDBFDF91CF911F9108958058823028F787
:1037F00020910405309105052C3DE3E03E07A1F53D
:1038000083E08A838AE289834FB7F894DE011396B6
:1038100020E03EE051E2E32FF0E050935700E491C6
:1038200020FF03C0E295EF703F5FEF708E2F90E0B6
:10383000EA30C0F0C7968D939D932F5F243159F7DE
:103840004FBF8091E800877F8093E8006AE270E0D4
:10385000CE0101960E949C048091E8008B778093B2
:10386000E800ABCFC096E7CF8091060590910705A1
:10387000432F55274330510509F44AC078F54130AC
:10388000510509F47AC08BE590E0E6EAF5E04230B4
:10389000510509F092CF2091E800277F2093E8009E
:1038A00020910805309109058217930708F49C01BF
:1038B00040E02115310509F065C0411163C08091D8
:1038C000E80082FDC9CF80910005882329F2853068
:1038D00019F28091E80083FFF2CFBECF413251054B
:1038E00009F43CC04232510509F067CF833091059D
:1038F00008F063CFFC01EE0FFF1FEC56FD4F019067
:10390000F081E02D8F569D4FDC018C9190E01AC024
:10391000332721303105D1F02115310561F02230F6
:10392000310509F04ACFE3E1F6E0E4918E2F90E013
:10393000E3E1F6E007C0E9E4F6E0E4918E2F90E0E1
:10394000E9E4F6E0009709F438CFA5CFEFE2F6E01E
:10395000E4918E2F90E0EFE2F6E0F4CF8330910512
:1039600008F02BCF880F991FFC01E656FD4F019000
:10397000F081E02D89E090E08ECF82E190E0E1E0FF
:10398000F6E089CF80910005882309F465CF853062
:1039900009F462CF8091E80083FD5ECF8091E8005A
:1039A00082FD8DCF8091E80080FF83CF9091F3005E
:1039B0008091F2002115310519F08830910550F001
:1039C00041E0089709F040E08091E8008E7780930D
:1039D000E8006FCF44914093F100319621503109B6
:1039E0000196E8CF803809F0E8CE8091E800877F23
:1039F0008093E800809101058093F10087CE8111CA
:103A0000DCCE10910405123008F0D7CE8091E8008A
:103A1000877F8093E800109301050E94EA03112339
:103A200011F084E005C08091E30087FDFACF81E0CA
:103A30008093000542E061EC81E00E94090442E2CB
:103A400061EC84E00E94090442E261EC82E00E94A1
:103A5000090442E260EC83E00E940904AECE80914A
:103A60000405813009F0A9CE81E0933009F080E0AF
:103A70008093FF041092E9008091E800877F809393
:103A8000E8000E94EA0399CE1F920F920FB60F92A0
:103A900011242F933F934F935F936F937F938F9353
:103AA0009F93AF93BF93CF93DF93EF93FF93D09107
:103AB000E900DF708091EC00C82FC17080FDC0E884
:103AC0001092E9008091F000877F8093F000789455
:103AD0000E947D1A1092E9008091F0008860809326
:103AE000F000CD2BCF70C093E900FF91EF91DF91F3
:103AF000CF91BF91AF919F918F917F916F915F9186
:103B00004F913F912F910F900FBE0F901F901895DE
:103B10008823B1F19CEF980F913A38F4682F80EA2E
:103B200093E00E94D8060C943D0790E2980F9830DD
:103B300088F4877021E030E0A90102C0440F551FCE
:103B40008A95E2F7CA018095909164048923809355
:103B50006404E9CF9BE5980F933020F490E080E077
:103B60000C940B0898E5980F973120F490E080E0D2
:103B70000C94F507803F20F00E943A0D0C949419A4
:103B80000895CF93C82F882309F46FC08CEF8C0F52
:103B9000813AC0F580911F01882311F180916A0458
:103BA00087FF1EC0EC2FE695E695E695F0E0E0561F
:103BB000FC4F828190E04C2F477021E030E002C042
:103BC000220F331F4A95E2F782239323892B91F02A
:103BD0006C2F80EA93E00E94D8060E943D070AC03D
:103BE000E2EAF3E088EA93E02191C21789F38E17A5
:103BF0009F07D1F76C2F80EA93E00E940207CF91D4
:103C00000C943D0780E28C0F883068F4C77021E087
:103C100030E001C0220FCA95EAF780916404822B3C
:103C200080936404ECCFEBE5EC0FE33040F4F0E07C
:103C3000E35BFD4F808190E0CF910C940B08E8E5A9
:103C4000EC0FE73150F4F0E0EE0FFF1FE05BFD4FAB
:103C500080819181CF910C94F507C03F30F08C2F7B
:103C60000E94F50DCF910C949419CF9108951F9354
:103C7000CF93DF93182FD0E0C0E0893311F4C0E573
:103C8000D0E0812F0E94C11D209731F4812FDF9158
:103C9000CF911F910C94881D8FE99FE00197F1F758
:103CA00000C000002197F0CF0F931F93CF93DF93B5
:103CB000C62FD42F022FFC0182818823A1F06093AC
:103CC00001070E942519909300078093FF06C77093
:103CD00081E001C0880FCA95EAF7DF91CF911F916B
:103CE0000F910C94EB0780910107681335C0809108
:103CF000FF06909100070E94C906883C910560F577
:103D000010E21D0FCD17B9F080E28C0F883040F41F
:103D1000C77081E001C0880FCA95EAF70E94E007EA
:103D2000183048F481E09D2F977001C0880F9A9554
:103D3000EAF70E94EB07802F0E94371E183098F494
:103D4000D77081E001C0880FDA95EAF7DF91CF9153
:103D50001F910F910C94E007C77081E001C0880F9C
:103D6000CA95EAF7F3CFDF91CF911F910F91089594
:103D70003F924F925F926F927F928F929F92AF92FB
:103D8000BF92CF92DF92EF92FF920F931F93CF9348
:103D9000DF9300D000D00F92CDB7DEB78C01FC01CD
:103DA00083819481892B31F08081918189238F3F98
:103DB00009F0F3C50F900F900F900F900F90DF91C7
:103DC000CF911F910F91FF90EF90DF90CF90BF9018
:103DD000AF909F908F907F906F905F904F903F90AB
:103DE00008950E940B11F82E682F89819A810E94F4
:103DF000AA0769817A818F2D0E94740F7C01F801D6
:103E00008281882309F49CC5C70182519F45409750
:103E100008F07FC58FEF93E00E94FC34FEEEEF0EBA
:103E200057E5852E52E0952E882381F1809161041B
:103E3000877009F4BFCFF8018281882309F4BACFD3
:103E400082E00F900F900F900F900F90DF91CF9125
:103E50001F910F91FF90EF90DF90CF90BF90AF90A8
:103E60009F908F907F906F905F904F903F900C94B9
:103E7000211A811424E09206C9F2C4010E94FC3484
:103E8000811101C0EA943FEF831A930AE110F1CF48
:103E90001C821B82442443944AE0342E74018FEF29
:103EA000E81AF80AC4010E94FC3489831A82882324
:103EB00009F4BCCF9FEF980F933000F58A834982B5
:103EC00092E0890E911CC7010E94FC348B838823E9
:103ED00009F4ACCFFE0131967F01F7012081222346
:103EE000E9F2213009F049C091818281913041F499
:103EF000F2E0EF0EF11C0E94371E09C04701EACF25
:103F0000923049F422E0E20EF11C0E94C11D3FEF05
:103F1000E31AF30AE2CF933031F432E0E30EF11CFE
:103F20000E94881DF4CF943021F08FEFE81AF80A30
:103F3000EECF92E0E90EF11C30E020E0B7016F5FB8
:103F40007F4FF70141818053990B8A30910550F0E2
:103F500021503109E0F28FE99FE00197F1F700C0AD
:103F60000000F6CF329EF001339EF00D11249C012B
:103F70002E0F3F1F842F7B01E1CFE22FF0E0EF5E99
:103F8000FA4F5490822F86958695869590E0FC0195
:103F9000EF5FFA4F64902770712C022E02C0759467
:103FA00067940A94E2F7E1E06E227724FC01EF5077
:103FB000FB4FA490B12C022E02C0B594A7940A9492
:103FC000E2F7F1E0AF22BB24FC01EF51FB4FC490BC
:103FD000D12C02C0D594C7942A95E2F721E0C222E1
:103FE000DD246114710419F081EE0E94C11DA11439
:103FF000B10419F086EE0E94C11D852D0E94371E66
:10400000AB2819F086EE0E94881D672819F081EE12
:104010000E94881DCD2809F47ACF8CE26CCF81E014
:104020000E943D1A0E94E21901CF81E00E94FE1910
:10403000F9CF82E0F5CF82E0F9CF8091060791E0D9
:10404000892780930607109214010E94FF17EECE75
:1040500080910607982F969596959F5F923208F06B
:1040600091E0837009F4E2CE990F990F892BE9CF83
:104070008091070790E04091090760910807089632
:104080000E940718D3CE80910707409109076091DD
:1040900008078850990BF4CF6091080720E1620F60
:1040A00008F46FEF809107074091090790E0E8CF8F
:1040B0006091080720E1621B08F460E0F3CF4091B3
:1040C000090720E1420F08F44FEF80910707609144
:1040D0000807ECCF4091090720E1421B08F440E0BB
:1040E000F4CF27E245EE65EE54C426E241EE60EEE1
:1040F00050C427E245EE64EE4CC426E241EE62EE87
:1041000048C428E241E0EFCF80916A04806126E054
:10411000E2162CE5F20609F498C080916A048860E2
:1041200037E0E3163CE5F30608F48FC080916A049B
:1041300080628BC08CE0E8168CE5F80609F49AC022
:1041400078F480916A048C60EAE0EE16ECE5FE06F5
:1041500009F47BC008F488C080916A048E7F75C022
:1041600080916A04877F2EE0E2162CE5F20609F4BE
:104170006CC080916A048B7F3FE0E3163CE5F30658
:1041800008F463C080916A048F7E5FC08BEFE816ED
:104190008CE5F80609F460C068F5E3E1EE16ECE59D
:1041A000FE0609F477C090F421E1E2162CE5F20650
:1041B00009F46CC032E1E3163CE5F30609F066C58C
:1041C0000E94681A80916A048F773FC085E1E816E3
:1041D0008CE5F80609F466C008F47AC080916B0497
:1041E0008160EAEFEE16ECE5FE0609F04FC580931C
:1041F0006B044CC5FFEFEF16FCE5FF0609F44EC05B
:1042000068F480916B048D7F3DEFE3163CE5F30687
:1042100071F3A0F180916B048360E9CF91E0E9161E
:104220009DE5F90609F45DC008F448C060E0F2E0DD
:10423000EF16FDE5FF0609F029C58EE090E00E942B
:10424000203524C580916A04816080936A041EC56C
:1042500080916A048460F9CF80916B048260C7CF3B
:1042600080916A048064F1CF0E94681A80916A0488
:104270008068EBCF80916A048D7FE7CF80916B04DB
:104280008E7FB5CF80916A048F7DDFCF80916A04E5
:104290008F7BDBCF80916A04837FD7CF80916B04C3
:1042A0008C7FA5CF80916A0482FB992790F921E049
:1042B000922790FB82F990FB83F9C7CF80916B0422
:1042C000982F909591708E7F892B90FB81F98FCFDD
:1042D0000E94681A90916A04892F97FB87F9805889
:1042E000B4CF61E0AACF8091640426E1E2162CE508
:1042F000F20609F063C38A7A91E009F490E09093A2
:10430000FA0369E2811165E380EA93E00E94020703
:104310000E943D078BCD8091C80480FF1BC08E7F1B
:104320008093C8046091C8047091C9048091CA0444
:104330009091CB040E943E161092C7043FEF80E795
:1043400092E0315080409040E1F700C000000E94B0
:10435000B9126CCD81608093C80461E086950E949B
:10436000311964CD43E759E16CE779E10E942D08EA
:104370005DCD4CE759E163E779E1F8CF4EE157E1D4
:1043800065E177E1F3CF4DEF56E169E077E1EECFFC
:1043900045EE56E161EF76E1E9CF41EF56E165EE9A
:1043A00076E1E4CF48E357E167E277E1DFCF61E010
:1043B00081E0D5CF65E082E00E94861937CD68E0C4
:1043C00086E0FACF64E18FE0F7CF67E185E1F4CFD3
:1043D00062E289E1F1CF61E083E2C1CF8BE5E816CB
:1043E0008DE5F80611F19CE5E9169DE5F90609F061
:1043F00017C380916B0482FB882780F991E089279D
:104400000E94D0110DC30E94681AEFEFF4E32CE074
:10441000E150F0402040E1F700C000000E949512FA
:104420000E94D31503CD81E0EBCF80E0E9CFC70137
:104430000E948207D82E03C32F2D2F70A22E8F2DFE
:10444000807F19F0A29490EFA922DD20C9F0AA2064
:1044500069F080E28E0D883010F081100BC08091E1
:104460006404A82AA09264040E943D078E2D0E9435
:10447000C11D19C080916304A82AA0926304F4CFDF
:104480008E2D0E94881DAA2071F0A09480E28E0DCE
:10449000883010F081103DC080916404A822A09261
:1044A00064040E943D07232D2850330B243031052E
:1044B00010F40E942108CC2009F47CCC8091610486
:1044C00080FD78CCF80112828595859585950E94AE
:1044D0003D1AC8010E94B81E80916104859585959A
:1044E00085950F900F900F900F900F90DF91CF91C7
:1044F0001F910F91FF90EF90DF90CF90BF90AF9002
:104500009F908F907F906F905F904F903F900C9412
:10451000FE1980916304A822A0926304C2CF3F2DAC
:104520003F70932E8F2D807F803219F0929480EF10
:104530009822882071F081E0881681F1DD20D9F180
:10454000AA2091F1F801858180FF90CF8F7085833B
:104550002BC0DD20B1F090916504892D892BA1102D
:1045600003C00E94EB079FCFE1E0AE12FACF20918B
:104570006B0422FD98CF981709F495CF80936504BA
:1045800092CFA11006C00E943707892D0E94E00734
:104590008ACFF1E0AF1609F486CFF5CFDD2031F0F8
:1045A00025E02A1508F47FCF892DDBCF34E03A15BA
:1045B00008F479CFEACFAA2041F3F9E38F1209C0BA
:1045C0002FEF37EE83E0215030408040E1F700C00C
:1045D00000008E2D0E94881D66CF8F2D86958695B2
:1045E000837061F0813009F05ECFC7019370D11004
:1045F00002C090E080E00E94F50755CFC70193709C
:10460000D11002C090E080E00E940B084CCF8E2DAC
:10461000DD2029F00E94F50D0E94941944CF0E94DC
:104620003A0DFACF8F2D837009F066C0D1103BCFC1
:104630008E2D829586958770880F880F6E2D6F70EE
:10464000462E512C712C612C082E04C0440C551C94
:10465000661C771C0A94D2F740E050E0BA01E4FEF1
:104660000FC04FE050E060E070E004C0440F551F01
:10467000661F771F8A95D2F7409550956095709583
:104680008F2D869586958370823019F1D8F48090AD
:10469000660490906704A0906804B090690481302B
:1046A00069F04429552966297729CB01BA01682187
:1046B00079218A219B210E945E1AF5CE482859282B
:1046C0006A287B28CB01BA01642975298629972994
:1046D000F2CF4429552966297729409066045090E5
:1046E00067046090680470906904CB01BA01642586
:1046F000752586259725DFCF8695DD2011F08F2D36
:104700008170882309F4CFCE8E2D8295869587708F
:10471000880F880F6E2D6F70462E512C712C612CD6
:10472000082E04C0440C551C661C771C0A94D2F752
:1047300040E050E0BA01E4FE0FC04FE050E060E01E
:1047400070E004C0440F551F661F771F8A95D2F78B
:1047500040955095609570958F2D869586958370C0
:10476000823019F1D8F48090020790900307A0904E
:104770000407B0900507813069F04429552966295E
:104780007729CB01BA01682179218A219B210E94D6
:10479000D81989CE482859286A287B28CB01BA0124
:1047A0006429752986299729F2CF44295529662934
:1047B000772940900207509003076090040770909B
:1047C0000507CB01BA016425752586259725DFCF1E
:1047D0009F2D9F70F92EDD2029F0892F0E943D1A10
:1047E0008E2DBFCE8E2D0E94E0078F2D0E94FE19C8
:1047F0005ACE8E2DE2EF8E1609F457C0E81578F0E8
:10480000F0EF8F1649F121EF821609F446C0DD2042
:1048100009F46FC0A1102ACE8F2D8F7143C033EFE2
:10482000831609F447C094EF8912F1CFDD2009F413
:1048300055C02F2D2F71F22E822F0E943D1A80918C
:104840006B0482FD07C038E0F39EC0011124836031
:10485000809361048F2D26C0DD20D1F0E4E0EA15BD
:1048600008F421CE2F2D2F7161E070E080E090E000
:1048700004C0660F771F881F991F2A95D2F74090B2
:1048800002075090030760900407709005079BCFC4
:10489000F5E0FA1508F407CEE5CF8F2D8F71DD20F6
:1048A00009F4A4CF0E943D1AFECD8F2D8F71DD201B
:1048B000C9F39CCF60E070E0CB01DD2009F467CF45
:1048C0002F2D2F7161E070E080E090E004C0660F52
:1048D000771F881F991F2A95D2F759CF81E00E9430
:1048E000211A81E08A1508F0DECD82E00E94211AAB
:1048F000DACDAA2059F0893309F06BCE9FEFE7EEAD
:10490000F3E09150E040F040E1F761CE8F2D8F71E0
:104910006DCFF0E1EF16FFE5FF0609F480CB21E152
:10492000E2162FE5F20609F484CBF701EB56F10904
:10493000E830F10508F050C1EF53FA4C0C945E34A6
:1049400030E1E3163FE5F30609F46FCB81E1E816A9
:104950008FE5F80609F46FCB23EFE2162CE5F2069B
:1049600009F4C3CB08F01AC188EDE8168CE5F80607
:1049700009F4B7CB99EDE9169CE5F90609F4C1CB2A
:10498000E7EDEE16ECE5FE0609F016C126E241EE73
:1049900061EEC8010E94541E49CA85E0DE011196ED
:1049A00001900D928A95E1F7F801228189819A811F
:1049B000211117CA0E948207F82E1BCA82722CECA2
:1049C000E2162CE5F20609F4EDCC08F0A5C096EC51
:1049D000E9169CE5F90609F4D1CC08F074C0F3ECB3
:1049E000EF16FCE5FF0609F4BDCC08F05BC032EC25
:1049F000E3163CE5F30609F48ECCEAE5EE16EDE5A8
:104A0000FE0609F410CD08F0E9CCE1142CE5F2061D
:104A100009F4F9CC3EEDE3163CE5F30609F400CDCC
:104A2000F8018281E080F180882309F400CDC7017C
:104A30000E940B11D82E682FC7010E94AA07B70148
:104A40008D2D0E94810F7C01882EF801D280A580D7
:104A5000A2943FE0A322809161048770A1F0CD2C45
:104A6000DD2091F08F2D807F803421F080E28E0D4B
:104A7000883048F082E00E94211A8091610487709A
:104A8000CC24C3948111C12C3F2C32942FE03222CC
:104A9000FBE0F31508F407CDE32DF0E0E753FA4C03
:104AA0000C945E3494ECE9169CE5F90609F461CCAB
:104AB00045E157E16EE177E1E5ECEE16ECE5FE0647
:104AC00009F454CC9ACFF9ECEF16FCE5FF0609F493
:104AD0005FCC88F437ECE3163CE5F30609F453CCDD
:104AE00049E057E16DEF76E198ECE9169CE5F906AF
:104AF00009F43CCC82CFEAECEE16ECE5FE0609F4B4
:104B00004CCC47E257E168E377E1FBECEF16FCE5BC
:104B1000FF0609F42BCC71CF21EDE2162CE5F2064D
:104B200009F450CCB8F48EECE8168CE5F80609F4DC
:104B300041CC08F43CCCEFECEE16ECE5FE0609F4B3
:104B40003ECC6EE089E0F0EDEF16FCE5FF0609F4DF
:104B500033CC53CF24EDE2162CE5F20609F438CC21
:104B600078F482EDE8168CE5F80609F42ECC61E0C5
:104B700088E193EDE9169CE5F90609F4F0CB3DCF09
:104B8000E5EDEE16ECE5FE0609F425CC6AE285E2D9
:104B9000FDE5EF16FF0609F40FCC2FCFF5EFEF166A
:104BA000FCE5FF0609F4A9CA08F4A3CA36EFE31628
:104BB0003CE5F30609F488C0F6E1EF16FCE5FF06D4
:104BC00009F02ECF8091FA0369E2811165E380EA52
:104BD00093E00E94D8069CCB83EFE8168CE5F8069C
:104BE00009F483CA08F062C0E8EDEE16ECE5FE06B3
:104BF00009F477CAF9EDEF16FCE5FF0609F481CA5E
:104C000027EDE2162CE5F20609F4C0CE109201075A
:104C100082E0E8168CE5F80608F465CB96E1E91623
:104C20009CE5F90630F0C7018A5F9C45099708F0BA
:104C30005ACB0E94400F90936B0480936A04E0E18A
:104C4000EE16ECE5FE0609F41DCB08F09FCA28E03D
:104C5000E2162CE5F20609F403CB08F06BCA84E0F7
:104C6000E8168CE5F80609F4F3CA08F04DCAE2E04C
:104C7000EE16ECE5FE0609F4E5CA80916A0482604E
:104C8000F3E0EF16FCE5FF0609F4DFCA60916A0461
:104C9000F0906B0484E090E00E9420356F2D82E25A
:104CA00090E00E9420350E94681AC0C835EFE316D4
:104CB0003CE5F30609F421CA08F41BCA96EFE9168D
:104CC0009CE5F90609F0A2CF27E245EE66EE61CE3B
:104CD0001F93CF93DF9380910104807FA9F480918B
:104CE000FE03882389F080913304D09102046091FF
:104CF000FC037091FD03A091FF03B0910004C62F47
:104D0000C72316E0D81304C0DF91CF911F910895F7
:104D100090E0109711F0CF3F19F401968770F2CF11
:104D2000189F9001199F300D1124F901ED5FFB4F81
:104D300041814713F2CF40814613EFCF42814111A9
:104D4000ECCF438154814A1B5B0B483C510528F74B
:104D5000809101048F70806180930104F901E85F04
:104D6000FB4F80818F70806180838CEF93E00E9485
:104D7000B81EDF91CF911F910C94D607AF92BF92CE
:104D8000CF92DF92EF92FF920F931F93CF93DF9317
:104D9000CDB7DEB761970FB6F894DEBF0FBECDBFBB
:104DA0008C0185E0F801DE011D9601900D928A9537
:104DB000E1F7F80180819181E2802CEFA22E23E0BF
:104DC000B22E6091FF03709100046115710509F422
:104DD0003EC13091FC034091FD03232F24232F3F3C
:104DE00009F435C1C380D480F090FE03F601E61BC0
:104DF000F70BFF2009F4FBC020910104522F507FD4
:104E0000E83CF10508F0BBC0511178C0FE2C4913F5
:104E100021C038131FC0E1101DC02F7020612093E6
:104E20000104C5010E94B81E80910104F801858328
:104E30008F2D61960FB6F894DEBF0FBECDBFDF9108
:104E4000CF911F910F91FF90EF90DF90CF90BF9087
:104E5000AF900895CD2829F0282F29232F3F09F05E
:104E600014C120E0F22FF170DF2E20FF3DC0209111
:104E700033044091020456E0241315C08D879E87A9
:104E80008D859E850E944D11292F22952F702230ED
:104E9000F8F0243020F59F70F9F0F8019581907FAB
:104EA000D9F4D12C1FC030E0529FF001539FF00D78
:104EB0001124ED5FFB4F6181961306C0608186135C
:104EC00003C06281E61210C02F5F3F4F2770D4CF1E
:104ED0009F7011F0882329F3805E883010F3C80199
:104EE0000E94B81EFD2CA4CFEE2009F4A1CF809122
:104EF0000104816080930104F12C9ACF491312C000
:104F0000381310C0E1100EC0F8012583C8010E94BB
:104F1000B81E86E0F801ACEFB3E001900D928A95DF
:104F2000E1F786CF8D879E878D859E850E945711DC
:104F3000882309F1EE20F9F080910104803270F0AD
:104F40002091FC033091FD0338872F831986DB867F
:104F5000CA868C87CE0107960E94B81E86E0F801AB
:104F6000ACEFB3E001900D928A95E1F70E946826BC
:104F7000FF24F3945DCFC8010E94B81EF9CF5111F0
:104F80000AC08CEF93E00E94B81E86E0F5011192F2
:104F90008A95E9F7B1CF49130FC038130DC0E1105E
:104FA0000BC0F8012583C8010E94B81E86E0F501F8
:104FB00011928A95E9F73CCF8D879E878D859E85D6
:104FC0000E9457118823B9F2EE20A9F280910104C2
:104FD000803220F22091FC033091FD033A83298333
:104FE0001B82DD82CC828E83CE010196B5CFE83C58
:104FF000F105E0F6FE2CEE2009F4BDCF491316C0F2
:10500000381314C08091010480FD83CF982F907FC6
:1050100009F47FCFF8018583903F09F477CF982F6B
:10502000907F905F8F70892B858370CF8D879E874F
:105030008D859E850E945711811190CF809101042A
:10504000816080930104C8010E94B81EF1CEEE2059
:1050500009F491CF8D879E878D859E850E9457117B
:10506000F82E882309F487CF86E0F801ACEFB3E08F
:1050700001900D928A95E1F78091FC039091FD03D8
:105080000E944D110E946826D3CE21E02E25EACE43
:105090001F93CF93DF93CDB7DEB767970FB6F89422
:1050A000DEBF0FBECDBF342F4B8B252F5C8B6D8B9E
:1050B0007E8B8F8B8E899F896111109263041A8A6F
:1050C000198A3D872E876F87998B888B86E0FE0132
:1050D0003D96DE01179601900D928A95E1F7CE017B
:1050E00007960E94BE26882389F016E0809133043B
:1050F00090910204891349C067960FB6F894DEBFF9
:105100000FBECDBFDF91CF911F91089586E0FE01C4
:105110003796DE01119601900D928A95E1F78A8506
:105120009B85892B11F38F81988589238F3FE9F225
:105130002091020430E0C9010196877099274091BF
:1051400033044817190671F40E94681A1092020479
:105150001092330486E0ECEFF3E0DF011D928A95B4
:10516000E9F7C3CF96E0929FD001939FB00D112431
:10517000AD5FBB4FFE01319601900D929A95E1F71C
:10518000809302040E94D607B0CF819FC0011124F2
:105190008D5F9B4F0E94BE26882309F4ADCF80917E
:1051A000330490E0019687709927809333049ECF53
:1051B0006F927F929F92AF92BF92CF92DF92EF92C7
:1051C000FF920F931F93CF93DF939EE7E92E92E018
:1051D000F92E10E000E0C0E0CC24C394D12C36E7D7
:1051E000A32E34E0B32ED7018D917D01F894E82FE2
:1051F000E295EF70F0E021A18F70A60102C0440F8C
:10520000551F8A95E2F7CA01922F982B91A392A17C
:105210008095892382A3789400C0A601002E02C045
:10522000440F551F0A94E2F7BA0160957095ECE6B9
:10523000F4E08CE8682E82E0782ED0E02191319164
:10524000D3019D903D01892D82958F7090E0DC0106
:1052500090968C9190E0B92DBF7002C0959587957E
:10526000BA95E2F780FD5EC0C901842B952B281703
:10527000390739F09F0122503109D9018D939C9350
:10528000D1E0AE16BF06D1F6F701319780810E94BA
:105290004F0EB0EABA95F1F7CD2B0F5F1F4F0E30CE
:1052A000110509F0A0CFCC2309F440C081E0809320
:1052B000C2030E9425199093C1038093C00380917B
:1052C000C0039091C1030E94C906049798F1809190
:1052D0006C0490916D049093CE048093CD048091E2
:1052E0006E0490916F049093D0048093CF048091CA
:1052F0007004909171049093D2048093D1048091B2
:105300007204909173049093D4048093D304809199
:105310007404909175049093D6048093D5041092F0
:10532000C20308C0C90186239723A1CF8091C2037D
:105330008111C5CF8C2FDF91CF911F910F91FF90DD
:10534000EF90DF90CF90BF90AF909F907F906F9045
:105350000895CDB7DEB7AB970FB6F894DEBF0FBE9A
:10536000CDBF84B7877F84BF0FB6F894A89580918E
:105370006000886180936000109260000FBE80E83A
:1053800090E00FB6F89480936100909361000FBE97
:1053900085B7806885BF85B7806885BF84EC96E057
:1053A00090939F0380939E030E9470030E943B048E
:1053B0008091E20084608093E200789480910005FF
:1053C0008823A1F01091E9001F709091EC00892FC3
:1053D000817090FD80E8182B1092E9008091E80020
:1053E00083FD0E947D1A1F701093E90082E084BD46
:1053F00093E095BD9AEF97BD80936E000EE712E0A3
:105400006CE8E62E62E0F62ED8018D918D010E94A7
:105410004F0EE016F106C1F786EC0E944F0E82E9AE
:105420000E944F0E83E90E944F0E85E90E944F0EA5
:1054300086EF0E944F0E10926D0410926C04109231
:10544000CE041092CD0410926F0410926E0410924C
:10545000D0041092CF041092710410927004109234
:10546000D2041092D104109273041092720410921C
:10547000D4041092D3041092750410927404109204
:10548000D6041092D50490E080E00E940A358A3E4E
:105490009E4F11F00E94D31582E090E00E94FC34F0
:1054A0008093BB040E94400F90936B0480936A0426
:1054B0000E94D828EFEBFDE53197F1F700C000001E
:1054C0000E94D8288091CD0480FF17C06FEF83E23F
:1054D00090E00E9420356FEF84E290E00E9420353A
:1054E0006FEF85E290E00E9420356FEF7FEF90E054
:1054F00080E00E943E350E94951283E090E00E9479
:10550000FC34682F70E090E080E00E945E1A0E94F8
:1055100059171092D2068FEF9FEF9093EC0680936D
:10552000EB069093EE068093ED069093F006809341
:10553000EF069093F2068093F1069093F406809321
:10554000F3069093F6068093F5069093F806809301
:10555000F7069093FA068093F90610927E049093D2
:1055600098048093970490939A048093990490935D
:105570009C0480939B0490939E0480939D0490933D
:10558000A00480939F049093A2048093A10490931D
:10559000A4048093A3049093A6048093A50490E0B0
:1055A00080E00E940A358A3E9E4F21F00E94D3156A
:1055B0000E94171846E050E06CE170E086E097E04A
:1055C0000E94EC34809106078C7F11F40E9417181A
:1055D00083E290E00E94FC34813211F00C9410338D
:1055E00084E290E00E94FC34883011F00C94103377
:1055F00085E290E00E94FC34883211F00C94103364
:1056000080917604811136C090E080E00E940A35D6
:105610008A3E9E4F21F00E94D3150E94491788E0D0
:1056200090E00E9404356093C8047093C90480938D
:10563000CA049093CB046E7F71F40E94491788E0EE
:1056400090E00E9404356093C8047093C90480936D
:10565000CA049093CB040E94B3091092C7048091AE
:10566000C80480FF04C060E086950E94311981E083
:105670008093760485E191E09093AC048093AB0431
:1056800001E058E1652E712C11E08091000520E4C5
:10569000D22E30E1E32E42E1F42E853009F4E1C050
:1056A0000E94D828882359F08FB7F8944091D704E6
:1056B0005091D8046091D9047091DA048FBFEDEC59
:1056C000F4E0ACEBB4E0F12CE12C6E2DC190D19064
:1056D0002D913D912C153D0509F486C22C253D25C3
:1056E000912CAA24A394B12CA9014A215B21452B1A
:1056F00009F474C299A26AA3CA20DB2081E0C11414
:10570000D10409F480E08BA30E9425198160782FD1
:105710009DA38CA349A15AA16BA18DA10E944828E9
:10572000F701EE0FFF1FE454FB4F80819181A82603
:10573000B926B182A082CD2871F08EE08E9DF00155
:105740008F9DF00D1124E056FD4FE90DF11D808174
:105750008F3F09F092C0B12CA0907E04EB2CF12C6D
:10576000C7018A0D911D099764F1F8E0CF2ED12C65
:10577000CE18DF08B70161587B4FA6018FE794E090
:105780000E94E334B70169577B4FA60187E894E094
:105790000E94E334A601440F551FB701660F771F1F
:1057A00069567B4F87E994E00E94E334B701615763
:1057B0007B4FA6018FE894E00E94E334AA94A09264
:1057C0007E0480917E0490E0EBA5AE2FB0E09D01B9
:1057D000220F331F2A513D4FAA0FBB1FBD01695134
:1057E0007D4F64C080910005843049F140E060E065
:1057F00080E00E94780831E03093AD041092770485
:105800000FB6F894A895609260000FBED092600029
:1058100083B7817F846083BF83B7816083BF7894BF
:10582000889583B78E7F83BF0FB6F894A895809133
:105830006000886180936000109260000FBE8091CC
:10584000FF04882371F00E94D828EDECF4E08191E8
:105850009191892B09F0CEC647ED54E04E175F07B2
:10586000B1F780910005853009F4BCCF0E94681A19
:105870000E9421081092AD0413CF8BA7BB24B394D0
:105880006BCF90E0FC01E258FB4FD9015C91518352
:10589000DB015C915187BBA5B18B880F991FFC017F
:1058A000E258FB4F128E118E91E0842F41E0480F99
:1058B0009B1538F380937E048091C7048823D1F12F
:1058C0008091C604E091C804E695E81BE0937A0451
:1058D000823009F0A2C1F0E0EE55FA4FE491EE2ECD
:1058E000F12CE0E0CE2EE5E1DE2E80917B048823D2
:1058F00061F010927B040E942519909379048093A3
:10590000780410927D0410927C040E942519E09185
:105910007804F09179048E1B9F0B8F3F9F4750F4C2
:10592000EE0DFF1DF0937904E093780488E794E08E
:10593000F60109958091A7049091A804A091A9046B
:10594000B091AA042FB7F8942090D7043090D804CF
:105950004090D9045090DA042FBF52014101881AB7
:10596000990AAA0ABB0A2FB7F894C090D704D0901E
:10597000D804E090D904F090DA042FBFC092A704B5
:10598000D092A804E092A904F092AA0460917E0447
:10599000EEE7F4E0462F50E00197AF4FBF4F82197A
:1059A0009309A409B5096513A9C140937E048091A8
:1059B000AD04B12C811109C080910607F82FF37056
:1059C000BF2E19F0B82EB694B69480911401813090
:1059D00009F4BDC1882309F4A4C1823009F4EEC3DF
:1059E000833009F4F8C386E0E4EBF4E0DE011196BD
:1059F00001900D928A95E1F7D090B604C090B7045B
:105A0000F090B804E090B9041092B6041092B70474
:105A10001092B8041092B9048D2D8C2909F448C055
:105A20008091B2049091B3040E94C9069C019091A8
:105A3000B104992309F41CC623333105C8F19F3FF3
:105A400019F09F5F9093B104DD2059F00E94D50DAD
:105A50009FEF1D140CF491E0899F802D11248093F9
:105A6000B604CC2059F00E94D50D9FEF1C140CF405
:105A700091E0899F802D11248093B7043091B60462
:105A80003323B1F02091B704222391F045EB340386
:105A9000C0011124992309F4BDC39093B60455EBBA
:105AA000250390011124332309F4B7C33093B704BD
:105AB0008F2D8E2909F448C08091AF049091B004D5
:105AC0000E94C9069C019091AE04992309F4CBC5AC
:105AD00025363105C8F19F3F19F09F5F9093AE04C2
